:100000000C942A000C9447000C9447000C94470071
:100010000C9447000C9447000C9447000C94470044
:100020000C9447000C9447000C9447000C94470034
:100030000C9447000C9447000C9447000C94470024
:100040000C9447000C9447000C9447000C94470014
:100050000C94470011241FBECFE5D8E0DEBFCDBF12
:1000600011E0A0E6B0E0E8E3F0E402C005900D92F4
:10007000A43EB107D9F711E0A4EEB1E001C01D9292
:10008000A93EB107E1F70E94D81E0C941A200C94E7
:100090000000EF92FF920F93DF93CF93CDB7DEB7BF
:1000A00060970FB6F894DEBF0FBECDBFA82F002318
:1000B00009F461C07E010894E11CF11C88E0F7019D
:1000C00011928A95E9F729833A834B835C836D8388
:1000D0007E83AF83988780E2801BE82FFF27E7FDB0
:1000E000F0954D815E816F817885181684F01D86AC
:1000F0001E861F86188A882799278E1B9F0B04C08F
:1001000076956795579547958A95D2F728C0202F01
:10011000332727FD3095DB01CA01022E04C0B695B6
:10012000A795979587950A94D2F78D879E87AF8775
:10013000B88B04C0440F551F661F771FEA95D2F78E
:1001400089819A81AB81BC8104C0B695A7959795AA
:1001500087952A95D2F7482B592B6A2B7B2B4987F9
:100160005A876B877C8729853A854B855C856D85A9
:100170007E85AF8598898A2F60960FB6F894DEBF8A
:100180000FBECDBFCF91DF910F91FF90EF900895FB
:10019000EF92FF920F931F937B018C0120E030E0E0
:1001A00040E05FE40E94740488238CF0C801B7012A
:1001B00020E030E040E05FE40E9440020E9432050F
:1001C0009B01AC01205030404040504806C0C8015F
:1001D000B7010E9432059B01AC01B901CA011F9110
:1001E0000F91FF90EF900895A0E0B0E0EAEFF0E00B
:1001F0000C94E31FDC012B01FA019C91923008F46E
:1002000039C1EB018881823008F433C1943069F43C
:10021000843009F02FC111969C911197898198170C
:1002200009F428C1AFE8B0E025C1843009F421C148
:100230008230A9F4923009F01DC19A01AD0188E025
:10024000EA010990AE01E90109929E018150C1F7CE
:10025000E201898111969C918923818308C19230A2
:1002600009F407C112962D903C901397EB018A81F7
:100270009B811496AD90BD90CD90DC901797EC804B
:10028000FD800E811F819101281B390BB90137FFB9
:1002900004C066277727621B730B603271050CF070
:1002A00061C0121613066CF537014801062E04C012
:1002B00096948794779467940A94D2F721E030E07B
:1002C00040E050E004C0220F331F441F551F6A95C1
:1002D000D2F721503040404050402E213F21402352
:1002E0005123211531054105510521F021E030E070
:1002F00040E050E079018A01E628F7280829192909
:100300003CC0232BD1F1260E371E35014601062EA7
:1003100004C096948794779467940A94D2F721E066
:1003200030E040E050E004C0220F331F441F551F4F
:100330006A95D2F721503040404050402A213B215D
:100340004C215D21211531054105510521F021E0A8
:1003500030E040E050E059016A01A628B728C828DB
:10036000D9280BC0821593052CF01C01AA24BB24AC
:10037000650103C0EE24FF24870111969C91D201F0
:1003800011968C91981709F445C0992339F0A8016A
:1003900097012A193B094C095D0906C0A601950180
:1003A0002E193F09400B510B57FD08C011823382B3
:1003B000228224833583468357831DC081E0818355
:1003C0003382228288279927DC01821B930BA40B9E
:1003D000B50B84839583A683B7830DC0220F331F8B
:1003E000441F551F2483358346835783828193811D
:1003F0000197938382832481358146815781DA0175
:10040000C9010197A109B1098F5F9F4FAF4FBF434A
:1004100028F30BC0918333822282EA0CFB1C0C1D53
:100420001D1DE482F5820683178383E08083248187
:1004300035814681578157FF1AC0C901AA2797FD08
:10044000A095BA2F81709070A070B07056954795A6
:1004500037952795822B932BA42BB52B84839583DB
:10046000A683B78382819381019693838283DF0180
:1004700001C0D201CD01CDB7DEB7E2E10C94FF1F80
:10048000A0E2B0E0E6E4F2E00C94EF1F69837A8327
:100490008B839C832D833E834F835887E9E0EE2E28
:1004A000F12CEC0EFD1ECE010196B7010E94230730
:1004B0008E010F5E1F4FCE010596B8010E942307E3
:1004C0008A8991E089278A8BC701B801AE01475E0E
:1004D0005F4F0E94F4000E944E06A096E6E00C9446
:1004E0000B20A0E2B0E0E7E7F2E00C94EF1F698395
:1004F0007A838B839C832D833E834F835887F9E0D7
:10050000EF2EF12CEC0EFD1ECE010196B7010E94DC
:1005100023078E010F5E1F4FCE010596B8010E9482
:100520002307C701B801AE01475E5F4F0E94F40088
:100530000E944E06A096E6E00C940B20A0E2B0E0EC
:10054000E4EAF2E00C94E31F69837A838B839C8353
:100550002D833E834F835887CE010196BE01675F8E
:100560007F4F0E942307CE010596BE016F5E7F4F2D
:100570000E9423079985923088F089898230C8F0DB
:10058000943019F4823051F404C0843029F492304C
:1005900081F48FE890E0C6C0923049F420E09A855B
:1005A0008A89981321E02A87CE010996BBC0823040
:1005B00049F420E09A858A89981321E02A8BCE019C
:1005C0004196B0C02D843E844F8458886D887E88C3
:1005D0008F88988CEE24FF248701AA24BB24650110
:1005E00040E050E060E070E0E0E0F0E0C1018170E8
:1005F0009070892BE9F0E60CF71C081D191D9A0173
:10060000AB012A0D3B1D4C1D5D1D80E090E0A0E07C
:10061000B0E0E614F7040805190520F481E090E045
:10062000A0E0B0E0BA01A901480F591F6A1F7B1F63
:10063000AA0CBB1CCC1CDD1C97FE08C081E090E01E
:10064000A0E0B0E0A82AB92ACA2ADB2A3196E03213
:10065000F10549F0660C771C881C991C5694479448
:1006600037942794C3CFFA85EA892B893C898B85F7
:100670009C85280F391F2E5F3F4F17C0CA0181701C
:100680009070892B61F016950795F794E79480E0B8
:1006900090E0A0E0B0E8E82AF92A0A2B1B2B769517
:1006A0006795579547952F5F3F4F77FDE7CF0CC074
:1006B000440F551F661F771F17FD4160EE0CFF1C8E
:1006C000001F111F21503040403090E0590790E04A
:1006D000690790E4790760F32B8F3C8FDB01CA0137
:1006E0008F779070A070B07080349105A105B1052E
:1006F00061F447FD0AC0E114F1040105110529F078
:10070000405C5F4F6F4F7F4F40781A8EFE1711F09D
:1007100081E08A8F4D8F5E8F6F8F78A383E0898F02
:10072000CE0149960E944E06A096E2E10C94FF1F6E
:10073000A8E1B0E0EEE9F3E00C94EB1F69837A8363
:100740008B839C832D833E834F835887B9E0EB2EA8
:10075000F12CEC0EFD1ECE010196B7010E9423077D
:100760008E010F5E1F4FCE010596B8010E94230730
:100770002985223008F47EC03989323010F4B8015E
:100780007CC08A859A8989278A87243011F0223093
:1007900031F4231709F06EC06FE870E06EC034309A
:1007A00039F41D861E861F86188A1C861B8604C087
:1007B000323021F484E08987B7015FC02B853C8506
:1007C0008B899C89281B390B3C872B87ED84FE8401
:1007D0000F851889AD88BE88CF88D88CEA14FB04B1
:1007E0000C051D0540F4EE0CFF1C001F111F2150CD
:1007F00030403C872B8720E030E040E050E080E054
:1008000090E0A0E0B0E460E070E0EA14FB040C05C6
:100810001D0540F0282B392B4A2B5B2BEA18FB08CF
:100820000C091D09B695A79597958795EE0CFF1CA9
:10083000001F111F6F5F7F4F6F31710531F7DA01B4
:10084000C9018F779070A070B07080349105A105B8
:10085000B10561F427FD0AC0E114F1040105110599
:1008600029F0205C3F4F4F4F5F4F20782D873E8708
:100870004F87588BBE01675F7F4FCB010E944E06AA
:100880006896EAE00C940720A8E1B0E0EAE4F4E01E
:100890000C94EF1F69837A838B839C832D833E8323
:1008A0004F83588789E0E82EF12CEC0EFD1ECE0117
:1008B0000196B7010E9423078E010F5E1F4FCE01E4
:1008C0000596B8010E9423078985823040F0898906
:1008D000823028F0C701B8010E949B0701C08FEF4A
:1008E0006896E6E00C940B20A8E1B0E0EAE7F4E0BB
:1008F0000C94EF1F69837A838B839C832D833E83C3
:100900004F83588789E0E82EF12CEC0EFD1ECE01B6
:100910000196B7010E9423078E010F5E1F4FCE0183
:100920000596B8010E9423078985823040F08989A5
:10093000823028F0C701B8010E949B0701C08FEFE9
:100940006896E6E00C940B20A8E1B0E0EAEAF4E057
:100950000C94EF1F69837A838B839C832D833E8362
:100960004F83588789E0E82EF12CEC0EFD1ECE0156
:100970000196B7010E9423078E010F5E1F4FCE0123
:100980000596B8010E9423078985823040F0898945
:10099000823028F0C701B8010E949B0701C081E0A6
:1009A0006896E6E00C940B20A8E0B0E0EAEDF4E0F5
:1009B0000C94EC1F9B01AC0183E08983DA01C9012F
:1009C0008827B7FD83959927AA27BB27B82E21151D
:1009D00031054105510519F482E089833AC0882325
:1009E000A9F0203080E0380780E0480780E8580709
:1009F00029F460E070E080E09FEC30C0EE24FF243A
:100A00008701E21AF30A040B150B02C079018A016F
:100A10008EE1C82ED12CDC82CB82ED82FE820F8348
:100A20001887C801B7010E94FF050197181619061B
:100A300084F4082E04C0EE0CFF1C001F111F0A9442
:100A4000D2F7ED82FE820F831887C81AD90ADC829A
:100A5000CB82BA82CE0101960E944E062896E9E02A
:100A60000C940820ACE0B0E0E8E3F5E00C94F31F50
:100A700069837A838B839C83CE010196BE016B5F71
:100A80007F4F0E9423078D81823061F1823050F1C7
:100A9000843021F48E81882351F12EC02F81388536
:100AA00037FD20C06E812F3131051CF06623F9F02F
:100AB00023C08EE190E0821B930B29853A854B85FC
:100AC0005C8504C056954795379527958A95D2F74A
:100AD0006623B1F050954095309521953F4F4F4F8B
:100AE0005F4F0EC020E030E040E050E009C02FEF43
:100AF0003FEF4FEF5FE704C020E030E040E050E818
:100B0000B901CA012C96E2E00C940F20A8E0B0E0F5
:100B1000ECE8F5E00C94EB1F7B018C01611571058D
:100B20008105910519F482E0898360C083E089839F
:100B30008EE1C82ED12CDC82CB82ED82FE820F8327
:100B40001887C801B7010E94FF05FC013197F7FF24
:100B50003BC0222733272E1B3F0B57016801022E73
:100B600004C0D694C794B794A7940A94D2F740E0EF
:100B700050E060E070E081E090E0A0E0B0E004C010
:100B8000880F991FAA1FBB1F2A95D2F70197A109A9
:100B9000B1098E219F21A023B1230097A105B105A2
:100BA00021F041E050E060E070E04A295B296C29C7
:100BB0007D294D835E836F8378878EE190E08E1B65
:100BC0009F0B9C838B8312C0309781F00E2E04C044
:100BD000EE0CFF1C001F111F0A94D2F7ED82FE825B
:100BE0000F831887CE1ADF0ADC82CB821A82CE01ED
:100BF00001960E944E062896EAE00C940720EF9298
:100C0000FF920F931F937B018C0180E0E81680E038
:100C1000F80681E0080780E0180788F48FEFE816EF
:100C2000F1040105110531F028F088E090E0A0E022
:100C3000B0E017C080E090E0A0E0B0E012C080E03B
:100C4000E81680E0F80680E0080781E0180728F041
:100C500088E190E0A0E0B0E004C080E190E0A0E096
:100C6000B0E020E230E040E050E0281B390B4A0BB6
:100C70005B0B04C016950795F794E7948A95D2F715
:100C8000F701E956FF4F8081281B310941095109BD
:100C9000C9011F910F91FF90EF900895DF92EF929D
:100CA000FF920F931F93FC01E480F580068117816A
:100CB000D1808081823048F480E090E0A0E1B0E013
:100CC000E82AF92A0A2B1B2BA5C0843009F49FC0FF
:100CD000823021F4EE24FF24870105C0E114F104E1
:100CE0000105110519F4E0E0F0E096C0628173811E
:100CF0009FEF623879070CF05BC022E83FEF261BBC
:100D0000370B2A3131052CF020E030E040E050E094
:100D10002AC0B801A701022E04C0769567955795A1
:100D200047950A94D2F781E090E0A0E0B0E004C0DB
:100D3000880F991FAA1FBB1F2A95D2F70197A109F7
:100D4000B1098E219F21A023B1230097A105B105F0
:100D500021F081E090E0A0E0B0E09A01AB01282B07
:100D6000392B4A2B5B2BDA01C9018F779070A07069
:100D7000B07080349105A105B10539F427FF09C091
:100D8000205C3F4F4F4F5F4F04C0215C3F4F4F4FA0
:100D90005F4FE0E0F0E02030A0E03A07A0E04A0733
:100DA000A0E45A0710F0E1E0F0E079018A0127C0E1
:100DB0006038710564F5FB01E158FF4FD801C701A8
:100DC0008F779070A070B07080349105A105B10547
:100DD00039F4E7FE0DC080E490E0A0E0B0E004C08C
:100DE0008FE390E0A0E0B0E0E80EF91E0A1F1B1FA1
:100DF00017FF05C016950795F794E794319687E09D
:100E000016950795F794E7948A95D1F705C0EE24D7
:100E1000FF248701EFEFF0E06E2F67956627679557
:100E2000902F9F77D794DD24D7948E2F8695492FC6
:100E3000462B582F5D29B701CA011F910F91FF90D2
:100E4000EF90DF900895FC01DB0140815181228108
:100E5000622F6F7770E0221F2227221F9381892F34
:100E6000880F822B282F30E0991F9927991F119600
:100E70009C93119721153105A9F54115510561057F
:100E8000710511F482E037C082E89FEF13969C93BE
:100E90008E9312979A01AB0167E0220F331F441F14
:100EA000551F6A95D1F783E08C930DC0220F331F35
:100EB000441F551F12968D919C911397019713967D
:100EC0009C938E931297203080E0380780E048078B
:100ED00080E4580758F314962D933D934D935C93FB
:100EE000179708952F3F310579F441155105610594
:100EF000710519F484E08C93089564FF03C081E0C8
:100F00008C9312C01C9210C02F57304013963C9304
:100F10002E93129783E08C9387E0440F551F661F32
:100F2000771F8A95D1F7706414964D935D936D93F6
:100F30007C93179708951F93DC01FB019C919230DD
:100F400008F447C08081823008F443C0943051F4E3
:100F500011961C91843099F58181682F70E0611B96
:100F600071093FC0843021F0923031F48230B9F100
:100F70008181882389F12DC011961C9111978230AF
:100F8000F1F081811817D9F412962D913C911397A5
:100F9000828193818217930794F028173907BCF058
:100FA00014968D919D910D90BC91A02D2481358139
:100FB00046815781281739074A075B0718F4112320
:100FC00041F00AC082179307A407B50740F4112324
:100FD00019F061E070E005C06FEF7FEF02C060E0E4
:100FE00070E0CB011F910895DF93CF9300D000D024
:100FF000CDB7DEB79A838983E981FA818081282F72
:1010000030E03C832B838B819C818330910554F4A9
:101010002B813C812130310584F48B819C810097A8
:1010200039F014C02B813C812330310559F00EC0BA
:1010300089819A810E944D0A09C089819A810E9402
:10104000460B04C089819A810E94890D0F900F90F0
:101050000F900F90CF91DF910895CF92DF92EF9292
:10106000FF920F931F93DF93CF93CDB7DEB72E97E9
:101070000FB6F894DEBF0FBECDBF89836A835C8351
:101080004B838981282F30E03E872D874D855E85F3
:101090004130510509F487C08D859E8582309105C8
:1010A0002CF4ED85FE85309771F0E8C12D853E85E5
:1010B0002230310509F4F5C04D855E854330510578
:1010C00009F46DC1DBC18A81E82FF0E0FC87EB8772
:1010D0002B853C852115310531F04B855C854130F0
:1010E000510579F1CBC10CE510E04B815C81CA015F
:1010F0009C01220F331FC9019695982F8827979539
:101100008795821B930B840F951FCC01A0E0B0E064
:10111000BC01CD010E948605DC01CB01BC01CD01E3
:1011200020E030E048EC52E40E949803DC01CB015F
:10113000BC01CD010E94C800DC01CB01F801808315
:101140009DC10CE510E08B819C81CC01A0E0B0E05A
:10115000BC01CD010E9486059B01AC0160E070E0FE
:1011600088EC92E40E944002DC01CB01BC01CD017D
:1011700020E030E04FE753E40E949E02DC01CB0107
:10118000BC01CD0120E030E048EC52E40E9498031D
:10119000DC01CB01BC01CD010E94C800DC01CB0108
:1011A000F80180836BC18A81282F30E03A87298734
:1011B00049855A854115510531F089859A858130D7
:1011C000910571F15BC10AE410E02091E4013091D6
:1011D000E5018B819C81FC012E9FC0012F9F900D0A
:1011E0003E9F900D1124CC01A0E0B0E0BC01CD01E8
:1011F0000E948605DC01CB01BC01CD0120E030E07E
:1012000048EC52E40E949803DC01CB01BC01CD0103
:101210000E94C800DC01CB01F801918380832EC1BC
:101220000F2EFAE4CF2EDD24F02D8B819C81CC0192
:10123000A0E0B0E0BC01CD010E9486059B01AC019D
:1012400060E070E088EC92E40E944002DC01CB0197
:101250007C018D018091E4019091E501CC01A0E039
:10126000B0E0BC01CD010E9486059B01AC01C80124
:10127000B7010E949E02DC01CB01BC01CD0120E040
:1012800030E048EC52E40E949803DC01CB01BC0141
:10129000CD010E94C800DC01CB01F601918380835F
:1012A000EDC08A81282F30E038872F834F81588501
:1012B0004115510531F08F8198858130910571F18B
:1012C000DDC008E410E02091E4013091E5018B815C
:1012D0009C81FC012E9FC0012F9F900D3E9F900D81
:1012E0001124CC01A0E0B0E0BC01CD010E94860534
:1012F000DC01CB01BC01CD0120E030E048EC52E440
:101300000E949803DC01CB01BC01CD010E94C80002
:10131000DC01CB01F80191838083B0C00F2EF8E48B
:10132000CF2EDD24F02D8B819C81CC01A0E0B0E09C
:10133000BC01CD010E9486059B01AC0160E070E01C
:1013400088EC92E40E944002DC01CB017C018D011B
:101350008091E4019091E501CC01A0E0B0E0BC01F6
:10136000CD010E9486059B01AC01C801B7010E9416
:101370009E02DC01CB01BC01CD0120E030E048EC55
:1013800052E40E949803DC01CB01BC01CD010E9414
:10139000C800DC01CB01F601918380836FC08A8194
:1013A000282F30E03E832D834D815E81411551050C
:1013B00031F08D819E818130910579F15FC003E428
:1013C00010E04B815C81CA019C01220F331FC901CF
:1013D0009695982F882797958795821B930B840F56
:1013E000951FCC01A0E0B0E0BC01CD010E948605B4
:1013F000DC01CB01BC01CD0120E030E048EC52E43F
:101400000E949803DC01CB01BC01CD010E94C80001
:10141000DC01CB01F801808331C003E410E08B8153
:101420009C81CC01A0E0B0E0BC01CD010E9486050A
:101430009B01AC0160E070E088EC92E40E94400205
:10144000DC01CB01BC01CD0120E030E04FE753E4EB
:101450000E949E02DC01CB01BC01CD0120E030E006
:1014600048EC52E40E949803DC01CB01BC01CD01A1
:101470000E94C800DC01CB01F80180832E960FB6D4
:10148000F894DEBF0FBECDBFCF91DF911F910F91BA
:10149000FF90EF90DF90CF9008950F931F93DF930D
:1014A000CF9300D000D000D0CDB7DEB79A83898328
:1014B000A7E3B0E0E7E3F0E0808188608C93E3E5A8
:1014C000F0E01082A3E5B0E0E3E5F0E09081E9818F
:1014D000FA818181880F880F880F892B80648C9313
:1014E000A3E5B0E0E3E5F0E09081E981FA81838152
:1014F0008295807F892B80628C93E981FA81828139
:10150000282F30E03E832D838D819E81843091058C
:10151000F1F0ED81FE81E530F1053CF48D819E8195
:1015200000968330910550F507C08D819E81069706
:101530008430910518F517C0A3E5B0E0E3E5F0E0CD
:101540009081E981FA818281892B8C9317C0A3E570
:10155000B0E0E3E5F0E09081E981FA818281815099
:10156000892B8C930BC0A3E5B0E0E3E5F0E090811C
:10157000E981FA8182818250892B8C93ECE5F0E03D
:101580001082E981FA818381282F30E03C832B830C
:101590008B819C81009731F0EB81FC81E130F1057A
:1015A00091F166C00CE510E0E981FA818085482F51
:1015B00050E0CA019C01220F331FC9019695982F54
:1015C000882797958795821B930B840F951FCC01D5
:1015D000A0E0B0E0BC01CD010E948605DC01CB019A
:1015E000BC01CD0120E030E048EC52E40E949803B9
:1015F000DC01CB01BC01CD010E94C800DC01CB01A4
:10160000F801808335C00CE510E0E981FA8180851E
:10161000882F90E0AA2797FDA095BA2FBC01CD0195
:101620000E94D4049B01AC0160E070E088EC92E47D
:101630000E944002DC01CB01BC01CD0120E030E082
:101640004FE753E40E949E02DC01CB01BC01CD01B7
:1016500020E030E048EC52E40E949803DC01CB012A
:10166000BC01CD010E94C800DC01CB01F8018083E0
:10167000E2E5F0E0108226960FB6F894DEBF0FBECA
:10168000CDBFCF91DF911F910F910895CF92DF923F
:10169000EF92FF920F931F93DF93CF93CDB7DEB7F7
:1016A0002E970FB6F894DEBF0FBECDBF9A83898305
:1016B000E981FA818081282F30E03E872D874D8592
:1016C0005E854130510531F08D859E8582309105D2
:1016D00049F00FC0A1E3B0E0E1E3F0E08081806277
:1016E0008C9307C0A1E3B0E0E1E3F0E0808180618A
:1016F0008C93EFE4F0E01082EEE4F0E01082AFE4CF
:10170000B0E0EFE4F0E0808182608C93AEE4B0E082
:10171000EEE4F0E09081E981FA818181880F880F01
:10172000880F892B80618C93E981FA818081E82F71
:10173000F0E0FC87EB872B853C852130310531F0CB
:101740004B855C854230510589F01DC0AFE4B0E0A7
:10175000EFE4F0E09081E981FA8183818295880F3E
:10176000880F807C892B80688C930DC0AFE4B0E03B
:10177000EFE4F0E09081E981FA8183818295807FB6
:10178000892B80628C93E981FA818281E82FF0E0D5
:10179000FA87E98729853A8524303105F1F04985B2
:1017A0005A85453051053CF489859A8500968330E9
:1017B000910550F507C089859A8506978430910573
:1017C00018F517C0AEE4B0E0EEE4F0E09081E981F6
:1017D000FA818281892B8C9317C0AEE4B0E0EEE4ED
:1017E000F0E09081E981FA8182818150892B8C938C
:1017F0000BC0AEE4B0E0EEE4F0E09081E981FA8164
:1018000082818250892B8C93E981FA81868197812C
:10181000CC01A0E0B0E020E034E244EF50E0BC01B5
:10182000CD010E94871FDC01CB01BC01CD010E94CC
:1018300086057B018C01E981FA8184819581CC0147
:10184000A0E0B0E0BC01CD010E948605DC01CB0127
:10185000BC01CD0120E030E04AE754E40E949E0242
:10186000DC01CB019C01AD01C801B7010E949803C6
:10187000DC01CB01BC01CD0120E030E040E85FE3BA
:101880000E944002DC01CB01BC01CD010E94C800D6
:10189000DC01CB019093E5018093E401E6E4F0E004
:1018A0008091E4019091E50191838083E981FA813F
:1018B0008081E82FF0E0F887EF832F813885213091
:1018C000310539F04F8158854230510509F488C0FF
:1018D0000DC1E981FA818381E82FF0E0FE83ED8379
:1018E0002D813E812115310531F04D815E814130E0
:1018F000510589F1FBC00AE410E0E981FA81808595
:10190000282F30E08091E4019091E501FC012E9FA9
:10191000C0012F9F900D3E9F900D1124CC01A0E09F
:10192000B0E0BC01CD010E948605DC01CB01BC0109
:10193000CD0120E030E048EC52E40E949803DC0145
:10194000CB01BC01CD010E94C800DC01CB01F80134
:1019500091838083CBC00F2EFAE4CF2EDD24F02DAF
:10196000E981FA818085882F90E0AA2797FDA095CC
:10197000BA2FBC01CD010E94D4049B01AC0160E0F0
:1019800070E088EC92E40E944002DC01CB017C0113
:101990008D018091E4019091E501CC01A0E0B0E0DF
:1019A000BC01CD010E9486059B01AC01C801B701B5
:1019B0000E949E02DC01CB01BC01CD0120E030E0A1
:1019C00048EC52E40E949803DC01CB01BC01CD013C
:1019D0000E94C800DC01CB01F6019183808386C0A0
:1019E000E981FA818381282F30E03C832B834B816E
:1019F0005C814115510531F08B819C8181309105CD
:101A000089F174C008E410E0E981FA818085282F0B
:101A100030E08091E4019091E501FC012E9FC0012E
:101A20002F9F900D3E9F900D1124CC01A0E0B0E0BF
:101A3000BC01CD010E948605DC01CB01BC01CD01BA
:101A400020E030E048EC52E40E949803DC01CB0136
:101A5000BC01CD010E94C800DC01CB01F8019183DB
:101A6000808344C00F2EF8E4CF2EDD24F02DE981D1
:101A7000FA818085882F90E0AA2797FDA095BA2F3C
:101A8000BC01CD010E94D4049B01AC0160E070E078
:101A900088EC92E40E944002DC01CB017C018D01C4
:101AA0008091E4019091E501CC01A0E0B0E0BC019F
:101AB000CD010E9486059B01AC01C801B7010E94BF
:101AC0009E02DC01CB01BC01CD0120E030E048ECFE
:101AD00052E40E949803DC01CB01BC01CD010E94BD
:101AE000C800DC01CB01F60191838083ECE4F0E0D7
:101AF000118210822E960FB6F894DEBF0FBECDBFB6
:101B0000CF91DF911F910F91FF90EF90DF90CF90D9
:101B100008950F931F93DF93CF9300D000D0CDB7DC
:101B2000DEB79A838983A1E3B0E0E1E3F0E080814E
:101B300080688C93E5E4F0E01082A5E4B0E0E5E491
:101B4000F0E09081E981FA818181880F880F880F08
:101B5000892B80648C93A3E5B0E0E3E5F0E090810D
:101B6000E981FA8183818295807F892B80628C93C1
:101B7000E981FA818281883079F0E981FA81828174
:101B8000893051F0A5E4B0E0E5E4F0E09081E9812E
:101B9000FA818281892B8C93E3E4F0E01082E98161
:101BA000FA818381282F30E03C832B838B819C81B9
:101BB000009731F0EB81FC81E130F10591F166C0D5
:101BC00003E410E0E981FA818085482F50E0CA01E2
:101BD0009C01220F331FC9019695982F882797954E
:101BE0008795821B930B840F951FCC01A0E0B0E07A
:101BF000BC01CD010E948605DC01CB01BC01CD01F9
:101C000020E030E048EC52E40E949803DC01CB0174
:101C1000BC01CD010E94C800DC01CB01F80180832A
:101C200035C003E410E0E981FA818085882F90E0D7
:101C3000AA2797FDA095BA2FBC01CD010E94D4041C
:101C40009B01AC0160E070E088EC92E40E944002ED
:101C5000DC01CB01BC01CD0120E030E04FE753E4D3
:101C60000E949E02DC01CB01BC01CD0120E030E0EE
:101C700048EC52E40E949803DC01CB01BC01CD0189
:101C80000E94C800DC01CB01F8018083E4E4F0E0AD
:101C900010820F900F900F900F90CF91DF911F91B6
:101CA0000F910895DF93CF9300D0CDB7DEB79A831D
:101CB0008983E981FA818081882F90E0009721F45F
:101CC00089819A810E940E0F0F900F90CF91DF9122
:101CD0000895DF93CF9300D0CDB7DEB789836A83B1
:101CE000AEE4B0E0EEE4F0E080818F7B8C938981FC
:101CF000882F90E00097A1F4AEE4B0E0EEE4F0E0CD
:101D00008081282F8A81882F90E0002496958795DE
:101D10000794969587950794982F802D822B8C9306
:101D20000F900F90CF91DF910895DF93CF930F9293
:101D3000CDB7DEB789838981882F90E0009721F4A1
:101D4000ECE4F0E0118210820F90CF91DF910895C2
:101D5000DF93CF9300D00F92CDB7DEB78B831A827B
:101D600019828B81882F90E0009731F4E6E4F0E04F
:101D7000808191819A83898389819A810F900F90C4
:101D80000F90CF91DF910895DF93CF9300D0CDB71F
:101D9000DEB789838981882F90E00097C1F4E8E558
:101DA000F0E08081829586958770882F90E0817021
:101DB0009070882351F0A8E5B0E0E8E5F0E080817C
:101DC00080628C9381E08A8303C01A8201C01A82E8
:101DD0008A810F900F90CF91DF910895DF93CF9379
:101DE00000D000D00F92CDB7DEB789837B836A83A2
:101DF0005D834C838981882F90E0009739F48A8134
:101E00009B812C813D81B9010E94640F0F900F903E
:101E10000F900F900F90CF91DF910895DF93CF93A4
:101E200000D0CDB7DEB79A838983A1E3B0E0E1E3C8
:101E3000F0E080818F7B8C93EFE4F0E01082EEE4A1
:101E4000F0E01082AEE4B0E0EEE4F0E09081E981F1
:101E5000FA818181892B8C93AEE4B0E0EEE4F0E06E
:101E60008081282FE981FA818281882F90E00024E7
:101E7000969587950794969587950794982F802D2A
:101E8000822B8C93A9E5B0E0E9E5F0E08081282F72
:101E9000E981FA818381882F90E0880F991F8295CC
:101EA0009295907F9827807F9827822B8C93ECE4E3
:101EB000F0E011821082E6E4F0E0118210820F90CF
:101EC0000F90CF91DF910895EF92FF920F931F93A0
:101ED000DF93CF93CDB7DEB72C970FB6F894DEBF64
:101EE0000FBECDBF9A8789877C876B87A8E5B0E056
:101EF000E8E5F0E0808180628C9380E061E00E9400
:101F0000690E80E00E94C40E8823D9F31D821E82D0
:101F10001F82188680E060E00E94690E80E00E94C7
:101F2000950EA8E5B0E0E8E5F0E0808180628C9352
:101F30001EC0E8E5F0E0808186958695882F90E0C8
:101F400081709070882399F0A8E5B0E0E8E5F0E0B2
:101F5000808184608C938D819E81AF81B885805013
:101F60009040AF4FBF4F8D839E83AF83B88780E093
:101F70000E94C40E8823E9F280E00E94A80E9C0112
:101F800040E050E08D819E81AF81B885820F931F24
:101F9000A41FB51F8D839E83AF83B88719821A82D1
:101FA0001B821C8280E061E00E94690E80E00E943A
:101FB000950EA8E5B0E0E8E5F0E0808180628C93C2
:101FC0001EC0E8E5F0E0808186958695882F90E038
:101FD00081709070882399F0A8E5B0E0E8E5F0E022
:101FE000808184608C9389819A81AB81BC8180508F
:101FF0009040AF4FBF4F89839A83AB83BC8380E00F
:102000000E94C40E8823E9F280E00E94A80ECC0151
:10201000A0E0B0E089839A83AB83BC8389859A85ED
:10202000CC01A0E0B0E02D813E814F815885BC01FC
:10203000CD010E94871FDC01CB01BC01CD010E94B4
:102040008605DC01CB01BC01CD0120E030E04AE790
:1020500054E40E949E02DC01CB01BC01CD0120E0D2
:1020600034E244E75BE40E949803DC01CB01EB859A
:10207000FC8580839183A283B3832D813E814F8130
:10208000588589819A81AB81BC8179018A01E80EEA
:10209000F91E0A1F1B1F89859A859C0140E050E0AC
:1020A000C801B7010E94871FDC01CB01BC01CD0133
:1020B0000E948605DC01CB01BC01CD0120E030E0AF
:1020C0004AE754E40E949E02DC01CB01BC01CD0131
:1020D00020E034E244E75BE40E949803DC01CB019A
:1020E000EB85FC8584839583A683B7832C960FB6F6
:1020F000F894DEBF0FBECDBFCF91DF911F910F913E
:10210000FF90EF900895DF93CF93CDB7DEB72E9772
:102110000FB6F894DEBF0FBECDBF89836A83898175
:10212000282F30E03E872D878D859E858130910553
:10213000D1F12D853E85223031052CF48D859E858B
:10214000009771F097C02D853E852230310509F446
:102150004DC08D859E858330910509F469C08AC084
:102160008A81282F30E03C872B878B859C858130A6
:10217000910579F02B853C852230310579F08B85EE
:102180009C85009709F076C02AE330E03A872987DA
:1021900073C08BE390E09A8789876EC029E330E0B3
:1021A0003A87298769C08A81282F30E038872F83B2
:1021B0008F8198858130910579F02F813885223083
:1021C000310579F08F819885009709F053C027E396
:1021D00030E03A87298750C088E390E09A87898762
:1021E0004BC026E330E03A87298746C08A81282FF2
:1021F00030E03E832D838D819E818130910571F089
:102200002D813E812230310571F08D819E810097B4
:1022100089F524E330E03A8729872EC085E390E0F2
:102220009A87898729C023E330E03A87298724C029
:102230008A81282F30E03C832B838B819C818130E5
:10224000910571F02B813C812230310571F08B8139
:102250009C81009779F421E330E03A8729870CC00C
:1022600082E390E09A87898707C020E330E03A87CD
:10227000298702C01A86198689859A852E960FB6F7
:10228000F894DEBF0FBECDBFCF91DF910895DF93ED
:10229000CF93CDB7DEB727970FB6F894DEBF0FBE4A
:1022A000CDBF8B836C834D838B8160E00E94831054
:1022B0009A8389838D81282F30E03F832E838E81FE
:1022C0009F81009731F02E813F8121303105A9F0A7
:1022D00026C0E981FA8140818C81282F30E081E09D
:1022E00090E0022E02C0880F991F0A94E2F78095B1
:1022F0008423E981FA81808312C0E981FA814081D7
:102300008C81282F30E081E090E0022E02C0880FFF
:10231000991F0A94E2F7842BE981FA81808327963A
:102320000FB6F894DEBF0FBECDBFCF91DF910895F9
:10233000DF93CF93CDB7DEB727970FB6F894DEBF04
:102340000FBECDBF8B836C834D838B8161E00E9478
:1023500083109A8389838D81282F30E03F832E83D9
:102360008E819F81009731F02E813F812130310590
:10237000A9F026C0E981FA8140818C81282F30E0C4
:1023800081E090E0022E02C0880F991F0A94E2F7C4
:1023900080958423E981FA81808312C0E981FA81E2
:1023A00040818C81282F30E081E090E0022E02C035
:1023B000880F991F0A94E2F7842BE981FA818083C0
:1023C00027960FB6F894DEBF0FBECDBFCF91DF9139
:1023D0000895DF93CF9300D000D0CDB7DEB78B83C5
:1023E0006C838B8161E00E9483109A838983E981E9
:1023F000FA8140818C81282F30E081E090E0022E2C
:1024000002C0880F991F0A94E2F78427E981FA81B4
:1024100080830F900F900F900F90CF91DF910895D0
:10242000DF93CF9300D000D00F92CDB7DEB78C836F
:102430006D831B828C8162E00E9483109A83898362
:10244000E981FA818081282F30E08D81882F90E00A
:10245000A90102C0559547958A95E2F7CA01817096
:102460008B838B810F900F900F900F900F90CF91D7
:10247000DF910895DF93CF9300D000D000D0CDB787
:10248000DEB78B836C838B8160E00E9483109A831C
:1024900089838C81282F30E03E832D838D819E811E
:1024A000009731F02D813E812130310529F008C09F
:1024B000E981FA81108204C0E981FA818FEF80837B
:1024C00026960FB6F894DEBF0FBECDBFCF91DF9139
:1024D0000895DF93CF9300D000D0CDB7DEB78B83C4
:1024E0006C838B8161E00E9483109A838983E981E8
:1024F000FA818C8180830F900F900F900F90CF9175
:10250000DF910895DF93CF9300D000D0CDB7DEB731
:102510008C831B828C8162E00E9483109A83898362
:10252000E981FA8180818B838B810F900F900F90CE
:102530000F90CF91DF910895DF93CF9300D000D01B
:1025400000D0CDB7DEB78B836C838B8160E00E94B7
:1025500083109A8389838C81282F30E03E832D83DA
:102560008D819E81009731F02D813E812130310592
:1025700049F00FC0E981FA8180818F70E981FA8189
:10258000808307C0E981FA818081806FE981FA81C7
:10259000808326960FB6F894DEBF0FBECDBFCF91D5
:1025A000DF910895DF93CF9300D000D000D0CDB756
:1025B000DEB78B836C838B8160E00E9483109A83EB
:1025C00089838C81282F30E03E832D838D819E81ED
:1025D000009731F02D813E812130310549F00FC047
:1025E000E981FA818081807FE981FA81808307C057
:1025F000E981FA8180818F60E981FA818083269662
:102600000FB6F894DEBF0FBECDBFCF91DF91089516
:10261000DF93CF9300D000D0CDB7DEB78B836C8330
:102620008B8161E00E9483109A838983E981FA811A
:1026300080818F70E981FA818083E981FA819081BC
:102640008C81807F892BE981FA8180830F900F90A4
:102650000F900F90CF91DF910895DF93CF9300D02B
:1026600000D0CDB7DEB78B836C838B8161E00E9495
:1026700083109A838983E981FA818081807FE9814F
:10268000FA818083E981FA818081982F8C818F7013
:10269000892BE981FA8180830F900F900F900F9022
:1026A000CF91DF910895DF93CF9300D000D0CDB7C5
:1026B000DEB78C831B828C8162E00E9483109A8338
:1026C0008983E981FA81808182958F708B838B81E8
:1026D0000F900F900F900F90CF91DF910895DF939F
:1026E000CF9300D000D0CDB7DEB78C831B828C8116
:1026F00062E00E9483109A838983E981FA81808154
:102700008F708B838B810F900F900F900F90CF91D4
:10271000DF910895DF93CF93CDB7DEB781E060E01E
:1027200041E00E94471181E062E041E00E944711D0
:1027300081E061E041E00E94471181E066E041E014
:102740000E94471181E064E041E00E94471181E06E
:1027500065E041E00E94471180E061E00E943A128A
:1027600081E066E041E00E94981183E00E94D3136B
:102770008EE30E942A1488EB0E942A141092E6012C
:1027800080E40E942A141092E70180EC0E942A142F
:102790008FE30E942A1481E00E94D3131092E80173
:1027A000CF91DF910895DF93CF9300D00F92CDB7F3
:1027B000DEB789838981282F30E03B832A838A8191
:1027C0009B818130910501F12A813B8122303105C5
:1027D0002CF48A819B81009761F036C02A813B816D
:1027E00022303105E1F08A819B818330910511F11E
:1027F0002BC081E064E040E00E94981181E065E038
:1028000040E00E94981120C081E064E041E00E9415
:10281000981181E065E040E00E94981115C081E0C8
:1028200064E040E00E94981181E065E041E00E9490
:1028300098110AC081E064E041E00E94981181E0B3
:1028400065E041E00E9498110F900F900F90CF919A
:10285000DF910895DF93CF93CDB7DEB769970FB6B9
:10286000F894DEBF0FBECDBF898F81E062E040E00B
:102870000E94981181E061E040E00E94981180E0A0
:10288000698D0E94691281E060E041E00E94981128
:1028900080E090E0A0EAB0E48D8B9E8BAF8BB88F88
:1028A0006D897E898F89988D2BEA3AEA4AEA50E44D
:1028B0000E949E02DC01CB01898B9A8BAB8BBC8B77
:1028C00069897A898B899C8920E030E040E85FE360
:1028D0000E94A40488231CF481E0888B91C069893C
:1028E0007A898B899C8920E030E04FE753E40E948D
:1028F000440418160CF07BC06D897E898F89988DF1
:1029000020E030E04AE754E40E949803DC01CB0168
:102910008C879D87AE87BF876C857D858E859F85DB
:1029200020E030E04AE755E40E949E02DC01CB0142
:1029300088879987AA87BB87688579858A859B85DB
:1029400020E030E040E85FE30E94A40488232CF4F8
:1029500081E090E09F838E833FC0688579858A857A
:102960009B8520E03FEF4FE757E40E944404181690
:102970004CF56C857D858E859F8520E030E040E2BA
:1029800051E40E949E02DC01CB01BC01CD010E94FA
:10299000C800DC01CB019F838E830FC080E991E0EA
:1029A0009D838C838C819D810197F1F79D838C831E
:1029B0008E819F8101979F838E838E819F81009757
:1029C00069F724C0688579858A859B850E94C8003F
:1029D000DC01CB019F838E838E819F819B838A83C1
:1029E0008A819B810197F1F79B838A830FC0698954
:1029F0007A898B899C890E94C800DC01CB01888B75
:102A00008889898389818A95F1F7898381E060E0EB
:102A100040E00E94981169960FB6F894DEBF0FBE91
:102A2000CDBFCF91DF910895DF93CF93CDB7DEB7C0
:102A300069970FB6F894DEBF0FBECDBF898F81E0D6
:102A400062E041E00E94981181E061E040E00E9474
:102A5000981180E0698D0E94691281E060E041E098
:102A60000E94981180E090E0A0EAB0E48D8B9E8BEC
:102A7000AF8BB88F6D897E898F89988D2BEA3AEA62
:102A80004AEA50E40E949E02DC01CB01898B9A8BBA
:102A9000AB8BBC8B69897A898B899C8920E030E07B
:102AA00040E85FE30E94A40488231CF481E0888B43
:102AB00091C069897A898B899C8920E030E04FE751
:102AC00053E40E94440418160CF07BC06D897E8983
:102AD0008F89988D20E030E04AE754E40E94980303
:102AE000DC01CB018C879D87AE87BF876C857D8598
:102AF0008E859F8520E030E04AE755E40E949E02E3
:102B0000DC01CB0188879987AA87BB87688579858F
:102B10008A859B8520E030E040E85FE30E94A404C2
:102B200088232CF481E090E09F838E833FC06885EA
:102B300079858A859B8520E03FEF4FE757E40E9427
:102B4000440418164CF56C857D858E859F8520E0A4
:102B500030E040E251E40E949E02DC01CB01BC0166
:102B6000CD010E94C800DC01CB019F838E830FC082
:102B700080E991E09D838C838C819D810197F1F7A1
:102B80009D838C838E819F8101979F838E838E810D
:102B90009F81009769F724C0688579858A859B8520
:102BA0000E94C800DC01CB019F838E838E819F81B0
:102BB0009B838A838A819B810197F1F79B838A8318
:102BC0000FC069897A898B899C890E94C800DC01C1
:102BD000CB01888B8889898389818A95F1F78983DC
:102BE00081E060E040E00E94981169960FB6F89489
:102BF000DEBF0FBECDBFCF91DF910895DF93CF939E
:102C0000CDB7DEB768970FB6F894DEBF0FBECDBF65
:102C100081E066E040E00E94981180E090E0A0E250
:102C2000B1E48D8B9E8BAF8BB88F6D897E898F8938
:102C3000988D2BEA3AEA4AEA50E40E949E02DC01AF
:102C4000CB01898B9A8BAB8BBC8B69897A898B89F9
:102C50009C8920E030E040E85FE30E94A4048823E0
:102C60001CF481E0888B91C069897A898B899C8961
:102C700020E030E04FE753E40E94440418160CF0C3
:102C80007BC06D897E898F89988D20E030E04AE78E
:102C900054E40E949803DC01CB018C879D87AE87AA
:102CA000BF876C857D858E859F8520E030E04AE773
:102CB00055E40E949E02DC01CB0188879987AA8790
:102CC000BB87688579858A859B8520E030E040E870
:102CD0005FE30E94A40488232CF481E090E09F83AA
:102CE0008E833FC0688579858A859B8520E03FEF8C
:102CF0004FE757E40E94440418164CF56C857D8517
:102D00008E859F8520E030E040E251E40E949E02E3
:102D1000DC01CB01BC01CD010E94C800DC01CB016C
:102D20009F838E830FC080E991E09D838C838C818B
:102D30009D810197F1F79D838C838E819F810197FF
:102D40009F838E838E819F81009769F724C0688559
:102D500079858A859B850E94C800DC01CB019F8311
:102D60008E838E819F819B838A838A819B81019739
:102D7000F1F79B838A830FC069897A898B899C8943
:102D80000E94C800DC01CB01888B888989838981F6
:102D90008A95F1F7898381E066E041E00E9498110D
:102DA00068960FB6F894DEBF0FBECDBFCF91DF910E
:102DB0000895AF92BF92CF92DF92EF92FF920F935E
:102DC0001F93DF93CF93CDB7DEB729970FB6F89453
:102DD000DEBF0FBECDBF2A833B834C835D836E83F2
:102DE0007F8388879987198247C08091E60188543C
:102DF0000E942A148091E701805C0E942A14898134
:102E0000882F90E0880F991F880F991F880F991FAE
:102E1000FC012A813B814C815D816E817F818885A7
:102E200099850E2F0E944900A22EB32EC42ED52EB6
:102E3000E62EF72E082F192F2A2D3B2D4C2D5D2D18
:102E40006E2D7F2D802F912F822F0E94141580913F
:102E5000E7018F5F8093E7018091E701803448F0BC
:102E60008091E801882329F482E00E94D313109214
:102E7000E70189818F5F89838981853008F4B5CF27
:102E800029960FB6F894DEBF0FBECDBFCF91DF916C
:102E90001F910F91FF90EF90DF90CF90BF90AF9078
:102EA0000895DF93CF9300D000D00F92CDB7DEB757
:102EB00089838091E8011D82882311F421E02D830C
:102EC0008091E7011C82893310F431E03C838D81CD
:102ED0009C81892B882309F40DC38981282F30E038
:102EE0003B832A838A819B818135910509F4B0C196
:102EF0002A813B81223531050CF0C8C08A819B8133
:102F00008933910509F4CDC22A813B812A333105E9
:102F10000CF067C08A819B818333910509F47FC2DD
:102F20002A813B8124333105BCF58A819B81803322
:102F3000910509F453C22A813B8121333105FCF408
:102F40008A819B818532910509F411C22A813B81D6
:102F5000263231053CF48A819B818032910509F447
:102F600027C2A9C22A813B812D32310509F42BC227
:102F70008A819B818E32910509F40FC29CC22A81FD
:102F80003B812133310509F434C28A819B8182332C
:102F9000910509F439C28FC22A813B81263331055C
:102FA00009F45EC28A819B81873391056CF42A8182
:102FB0003B812433310509F43DC28A819B818533ED
:102FC000910509F442C277C22A813B81273331053A
:102FD00009F451C28A819B818833910509F456C254
:102FE0006AC22A813B812634310509F410C18A81E5
:102FF0009B81873491052CF52A813B81233431054F
:1030000009F447C18A819B81843491056CF42A813B
:103010003B812D33310509F4B5C18A819B8181340F
:10302000910509F4E9C047C22A813B812434310566
:1030300009F445C18A819B818534910509F4FDC05D
:103040003AC22A813B812B34310509F44EC18A8171
:103050009B818C3491056CF42A813B8128343105A5
:1030600009F44EC18A819B818934910509F474C1A8
:1030700022C22A813B812D34310509F457C18A814E
:103080009B818E34910509F4F9C015C22A813B81D8
:103090002836310509F434C18A819B81893691052E
:1030A0000CF055C02A813B812A35310509F433C122
:1030B0008A819B818B3591052CF52A813B812435B2
:1030C000310509F407C18A819B81853591056CF42E
:1030D0002A813B812235310509F4A4C08A819B8174
:1030E0008335910509F42DC1E6C12A813B8125353F
:1030F000310509F4B8C08A819B818935910509F4AD
:10310000D3C0D9C12A813B812436310509F4D7C007
:103110008A819B81853691056CF42A813B81213619
:10312000310509F469C08A819B818336910509F4D0
:10313000B0C0C1C12A813B812536310509F47DC06B
:103140008A819B818636910509F461C0B4C12A81C8
:103150003B812237310509F465C08A819B81833721
:1031600091052CF52A813B812D36310509F4DEC00D
:103170008A819B818E3691056CF42A813B812936A8
:10318000310509F4E9C08A819B818B36910509F4E8
:10319000ACC091C12A813B812E36310509F46EC045
:1031A0008A819B818137910509F452C084C12A81AB
:1031B0003B812537310509F456C08A819B818637CA
:1031C00091056CF42A813B812337310509F4B9C09C
:1031D0008A819B818437910509F47CC06CC12A8166
:1031E0003B812937310509F45FC08A819B818A3789
:1031F000910509F490C05FC12CE732E141E152E151
:103200006CE770E080E090E00E94D91654C12FE78F
:1032100039E049E059E061E070E080E090E00E9430
:10322000D91649C12FE739E049E159E26FE470E06E
:1032300080E090E00E94D9163EC12FE739E449E4CE
:1032400059E461E470E080E090E00E94D91633C157
:103250002EE131E241E35EE360E470E080E090E083
:103260000E94D91628C12FE330E440E450E46FE314
:1032700070E080E090E00E94D9161DC12FE732E097
:103280004CE150E26FE770E080E090E00E94D916D8
:1032900012C12EE331E441E451E461E470E080E0E6
:1032A00090E00E94D91607C123E03CE040E75CE0D3
:1032B00063E070E080E090E00E94D916FCC02FE748
:1032C00031E441E45EE360E070E080E090E00E9481
:1032D000D916F1C021E031E04FE751E061E070E044
:1032E00080E090E00E94D916E6C02FE738E044E184
:1032F00052E261E470E080E090E00E94D916DBC009
:103300002FE738E048E058E06FE770E080E090E0B9
:103310000E94D916D0C021E631E549E455E463E4C2
:1033200070E080E090E00E94D916C5C02FE732E03F
:103330004CE052E06FE770E080E090E00E94D91628
:10334000BAC02FE439E449E459E469EF70E080E061
:1033500090E00E94D916AFC021E431E44FE751E478
:1033600061E470E080E090E00E94D916A4C023ECF4
:1033700033E748E15EEC63EC70E080E090E00E94AF
:10338000D91699C024E234E244E254E264E270E0E7
:1033900080E090E00E94D9168EC020E030E740E740
:1033A00050E760E070E080E090E00E94D91683C0B2
:1033B00020E030E040E050E060E070E080E090E04D
:1033C0000E94D91678C028E138E148E158E168E167
:1033D00070E080E090E00E94D9166DC02EE331E5E8
:1033E00049E455E46EE370E080E090E00E94D91675
:1033F00062C024E432E44FE750E460E470E080E02F
:1034000090E00E94D91657C026E431E641E55EE41B
:1034100060E470E080E090E00E94D9164CC021E4A6
:1034200039E449E459E466E370E080E090E00E940A
:10343000D91641C028E134E142E15FE760E170E084
:1034400080E090E00E94D91636C02FE439E449E4C8
:1034500051E561E270E080E090E00E94D9162BC057
:103460002CE73AE449E459E461E370E080E090E05D
:103470000E94D91620C021E039E449E259E16FE009
:1034800070E080E090E00E94D91615C027E739E48B
:1034900049E459E467E770E080E090E00E94D916C3
:1034A0000AC02FE439E449E459E46FE770E080E0B2
:1034B00090E00E94D9168091E60188540E942A1457
:1034C0008091E701805C0E942A1480E00E9414151C
:1034D0008091E7018F5F8093E7018091E70180345D
:1034E00048F08091E801882329F482E00E94D313F8
:1034F0001092E7010F900F900F900F900F90CF91C7
:10350000DF910895DF93CF9300D0CDB7DEB79A83D4
:1035100089830AC0E981FA8180810E9451178981DB
:103520009A8101969A838983E981FA81808188232F
:1035300089F70F900F90CF91DF910895DF93CF938C
:10354000CDB7DEB72C970FB6F894DEBF0FBECDBF58
:1035500069877A878B879C8789859A85AB85BC85A7
:10356000BB2394F48DE20E94511789859A85AB851F
:10357000BC85B095A095909581959F4FAF4FBF4F5B
:1035800089879A87AB87BC871B821C821D821E821B
:103590001F821886CE0104969A83898389859A852D
:1035A000AB85BC852AE030E040E050E0BC01CD01B5
:1035B0000E94A61FDC01CB018B838B81805DE9819A
:1035C000FA81808389859A85AB85BC852AE030E0C5
:1035D00040E050E0BC01CD010E94A61FDA01C90104
:1035E00089879A87AB87BC8789819A8101969A835C
:1035F000898389859A85AB85BC85181619061A06B4
:103600001B0664F289819A8101979A838983E981F3
:10361000FA8180810E9451179E012C5F3F4F898162
:103620009A818217930771F72C960FB6F894DEBF34
:103630000FBECDBFCF91DF910895EF92FF920F9310
:103640001F93DF93CF93CDB7DEB72C970FB6F894C7
:10365000DEBF0FBECDBF69877A878B879C87698560
:103660007A858B859C850E94C800DC01CB019887F8
:103670008F838F819885CC01A0E0B0E0BC01CD01A3
:103680000E949E1A8EE20E9451178F819885CC016C
:10369000A0E0B0E0BC01CD010E9486059B01AC0119
:1036A00069857A858B859C850E944002DC01CB016F
:1036B0008B839C83AD83BE831A8219823FC06B814A
:1036C0007C818D819E8120E030E040E251E40E94C7
:1036D0009E02DC01CB01BC01CD010E94C800DC01CF
:1036E000CB018A838A81805D0E9451176B817C8126
:1036F0008D819E8120E030E040E251E40E949E02F4
:10370000DC01CB017C018D018A81882F90E0AA2702
:1037100097FDA095BA2FBC01CD010E94D4049B0156
:10372000AC01C801B7010E944002DC01CB018B83D0
:103730009C83AD83BE8389818F5F89838981833038
:1037400008F4BDCF2C960FB6F894DEBF0FBECDBFE8
:10375000CF91DF911F910F91FF90EF900895DF932C
:10376000CF930F92CDB7DEB789838981883090F4EB
:1037700081E00E94D31389818093E6018091E60164
:1037800088540E942A141092E7018091E701805C1E
:103790000E942A140F90CF91DF910895DF93CF9369
:1037A00000D0CDB7DEB71A8218C08A810E94AF1B45
:1037B00083E00E94D31319820AC08981805C0E9431
:1037C0002A1480E00E94141589818F5F8983898182
:1037D000803498F38A818F5F8A838A81883028F3C6
:1037E0000E94FE1581E00E94D3131092E80180E050
:1037F0000E94AF1B0F900F90CF91DF910895DF9340
:10380000CF93CDB7DEB70E948A130E94CE1B8FECF8
:1038100091E00E94F40788ED91E00E94520ECF9152
:10382000DF910895DF93CF93CDB7DEB72F970FB613
:10383000F894DEBF0FBECDBF9A878987CE0101966F
:103840009C878B87ECEDF1E0FE87ED87F8E0FF8742
:10385000ED85FE8500808D859E8501969E878D87EE
:10386000EB85FC8500828B859C8501969C878B87E8
:103870009F8591509F87EF85EE2351F780E068E0A8
:1038800070E09E012F5F3F4FA9010E94EE0E8D81D7
:103890009E81AF81B885E985FA8581879287A38764
:1038A000B48789819A81AB81BC81E985FA8581835E
:1038B0009283A383B4838D819E81AF81B885298152
:1038C0003A814B815C81BC01CD010E944002DC0148
:1038D000CB01E985FA8585839683A783B087E9853F
:1038E000FA85218532854385548560E070E080E863
:1038F0009FE30E949803DC01CB01E985FA85858767
:103900009687A787B08BE985FA8581819281A3810B
:10391000B481BC01CD0120E030E048EC52E40E94CB
:103920009E02DC01CB01E985FA852185328543853C
:103930005485BC01CD010E949803DC01CB01BC0180
:10394000CD010E94C800DC01CB01E985FA858083A6
:103950002F960FB6F894DEBF0FBECDBFCF91DF918B
:103960000895DF93CF93CDB7DEB7CA54D0400FB6DA
:10397000F894DEBF0FBECDBF9AAB89AB4BAB5CAB4F
:103980006DAB7EAB0E94CE1B80E00E94AF1B80918E
:10399000600090916100A0916200B09163008B8300
:1039A0009C83AD83BE831F82188619861A86CE013A
:1039B00003960E94821AE9A9FAA985859685A785AA
:1039C000B089BC01CD010E941D1BCE010B9698AFA2
:1039D0008FABA8E6B0E0BAAFA9AFB5E0BBAFE9AD39
:1039E000FAAD008089AD9AAD01969AAF89AFAFA9C3
:1039F000B8AD0C92EFA9F8AD3196F8AFEFABFBADD7
:103A0000F150FBAF8BAD882351F7CE010B960E948E
:103A1000821ADE015096BDAFACAFEEE6F0E0FFAF2C
:103A2000EEAFF6E02196FFAF2197AEADBFAD0C90A3
:103A3000EEADFFAD3196FFAFEEAFACADBDAD0C92CC
:103A4000ECADFDAD3196FDAFECAF2196FFAD21970A
:103A5000F1502196FFAF219721968FAD21978823B2
:103A600021F71F8A1E8ACE0140960E94821AE9A978
:103A7000FAA98081882F90E0A0E0B0E0BC01CD01E0
:103A80000E949E1A8091760090917700A091780014
:103A9000B0917900888F998FAA8FBB8F1C8ECE0131
:103AA00048960E94821A86E00E94AF1B1A8272C05A
:103AB00020E430E44EE752E062E070E080E090E025
:103AC0000E94D9168A818B5F8A83198210C022E0F6
:103AD00032E042E052E062E070E080E090E00E947C
:103AE000D9168A818B5F8A8389818F5F8983E9A94F
:103AF000FAA981819281A381B481BC01CD012BA956
:103B00003CA94DA95EA90E949803DC01CB01BC0130
:103B1000CD010E94C800DC01CB01982F8981891753
:103B2000B0F222E032E04EE750E460E470E080E082
:103B300090E00E94D9168A818B5F8A83198210C017
:103B400020E430E440E450E460E470E080E090E0A1
:103B50000E94D9168A818B5F8A8389818F5F8983CE
:103B6000E9A9FAA985819681A781B085BC01CD011B
:103B70002BA93CA94DA95EA90E949803DC01CB01A9
:103B8000BC01CD010E94C800DC01CB01982F8981C6
:103B90008917B0F28A81883708F48ACF85E00E94BD
:103BA000AF1B20E03EE348E05CE16AE270E080E0C9
:103BB00090E00E94D91619820DC028E038E048E054
:103BC00058E068E070E080E090E00E94D9168981BA
:103BD0008F5F8983E9A9FAA981819281A381B48148
:103BE000BC01CD012BA93CA94DA95EA90E94980357
:103BF000DC01CB01BC01CD010E94C800DC01CB017E
:103C0000982F89818917C8F228E038E048E058E009
:103C100068E070E080E090E00E94D91619820DC043
:103C200028E038E048E058E068E070E080E090E0AC
:103C30000E94D91689818F5F8983E9A9FAA98581B4
:103C40009681A781B085BC01CD012BA93CA94DA9C6
:103C50005EA90E949803DC01CB01BC01CD010E944A
:103C6000C800DC01CB01982F89818917C8F22AE2AC
:103C70003CE148E05EE360E070E080E090E00E94BC
:103C8000D91684E00E94AF1BDE015D962396BFAF7C
:103C9000AEAF2397EBE7F0E02596FFAFEEAF2597A9
:103CA000F8E02696FFAF26972596AEADBFAD2597D7
:103CB0000C902596EEADFFAD259731962596FFAF7A
:103CC000EEAF25972396AEADBFAD23970C9223960A
:103CD000EEADFFAD239731962396FFAFEEAF23975E
:103CE0002696FFAD2697F1502696FFAF269726968B
:103CF0008FAD26978823C1F687E0FE01B596DF01D8
:103D0000982F1D929A95E9F7CE014D960E94821A3E
:103D1000E9A9FAA981859285A385B485BC01CD0165
:103D20000E941D1BDE019C962896BFAFAEAF289760
:103D3000EAE8F0E02A96FFAFEEAF2A97F5E02B967F
:103D4000FFAF2B972A96AEADBFAD2A970C902A965F
:103D5000EEADFFAD2A9731962A96FFAFEEAF2A97C8
:103D60002896AEADBFAD28970C922896EEADFFAD6C
:103D7000289731962896FFAFEEAF28972B96FFAD88
:103D80002B97F1502B96FFAF2B972B968FAD2B9740
:103D90008823C1F6CE018C960E94821AC65BDF4F43
:103DA0000FB6F894DEBF0FBECDBFCF91DF9108955F
:103DB000DF93CF93CDB7DEB7A3970FB6F894DEBFEE
:103DC0000FBECDBF0E94FF1B81E1FE017396DF0194
:103DD000982F1D929A95E9F780E090E0A0E8BEE365
:103DE0008F87988BA98BBA8BCE0143960E94121CA9
:103DF0008C8D9D8DAE8DBF8DBC01CD0120E030E05E
:103E000040EA50E40E949803DC01CB018F87988B35
:103E1000A98BBA8BCE0143962F85388949895A8957
:103E2000BA01A9010E94B11C80E090E0A8ECB2E4C4
:103E30008B879C87AD87BE876B857C858D859E85AE
:103E400020E030E04AE755E40E949E02DC01CB010D
:103E50008F839887A987BA876F81788589859A85A6
:103E600020E030E040E85FE30E94A40488232CF4C3
:103E700081E090E09E838D833FC06F817885898546
:103E80009A8520E03FEF4FE757E40E94440418165C
:103E90004CF56B857C858D859E8520E030E040E289
:103EA00051E40E949E02DC01CB01BC01CD010E94C5
:103EB000C800DC01CB019E838D830FC080E991E0B7
:103EC0009C838B838B819C810197F1F79C838B83EF
:103ED0008D819E8101979E838D838D819E81009728
:103EE00069F782CF6F81788589859A850E94C8009D
:103EF000DC01CB019E838D838D819E819A83898392
:103F000089819A810197F1F79A8389836DCF629FA6
:103F1000D001739FF001829FE00DF11D649FE00DC1
:103F2000F11D929FF00D839FF00D749FF00D659F22
:103F3000F00D9927729FB00DE11DF91F639FB00D21
:103F4000E11DF91FBD01CF011124089597FB092E32
:103F500005260ED057FD04D014D00AD0001C38F42A
:103F600050954095309521953F4F4F4F5F4F0895A5
:103F7000F6F790958095709561957F4F8F4F9F4F85
:103F80000895A1E21A2EAA1BBB1BFD010DC0AA1F9A
:103F9000BB1FEE1FFF1FA217B307E407F50720F0B2
:103FA000A21BB30BE40BF50B661F771F881F991F2D
:103FB0001A9469F760957095809590959B01AC0176
:103FC000BD01CF0108952F923F924F925F926F9261
:103FD0007F928F929F92AF92BF92CF92DF92EF9299
:103FE000FF920F931F93CF93DF93CDB7DEB7CA1B1A
:103FF000DB0B0FB6F894DEBF0FBECDBF09942A8845
:10400000398848885F846E847D848C849B84AA84EC
:10401000B984C884DF80EE80FD800C811B81AA8179
:10402000B981CE0FD11D0FB6F894DEBF0FBECDBF44
:08403000ED010895F894FFCFA3
:10403800463D000000000000206B487A0000202068
:10404800443D0000000020250000002054696D65F3
:104058003D000000000000000000206D730000001B
:104068000000000000000000010202030303030433
:1040780004040404040404050505050505050505EF
:1040880005050505050505060606060606060606CF
:1040980006060606060606060606060606060606B8
:1040A800060606060606060707070707070707079F
:1040B8000707070707070707070707070707070788
:1040C8000707070707070707070707070707070778
:1040D8000707070707070707070707070707070768
:1040E800070707070707070808080808080808084F
:1040F8000808080808080808080808080808080838
:104108000808080808080808080808080808080827
:104118000808080808080808080808080808080817
:104128000808080808080808080808080808080807
:1041380008080808080808080808080808080808F7
:1041480008080808080808080808080808080808E7
:1041580008080808080808080808080808080808D7
:10416800080808080808080000000000001F001FD1
:10417800000000000000000704040404041C001CE4
:10418800040404040407000111091D0911000010AA
:10419800111217121100000000001F00000000009B
:1041A800010201000104005A0002000000000000A2
:0441B8000000000003
:00000001FF
